:100000000C9463000C948B000C948B000C9476057C
:100010000C9476050C9476050C948B000C948B0054
:100020000C948B000C948B000C948B000C948B0024
:100030000C948B000C948B000C948B000C948B0014
:100040000C942C050C948B000C94FA040C94D4049E
:100050000C948B000C948B000C948B000C948B00F4
:100060000C948B000C948B000000000024002700EF
:100070002A0000000008000201000003040700003D
:1000800000000000000000000000250028002B00F8
:1000900000000000230026002900040404040404D6
:1000A0000404020202020202030303030303010227
:1000B00004081020408001020408102001020408F6
:1000C0001020F0051D0911241FBECFEFD8E0DEBFC0
:1000D000CDBF22E0A6E8B1E001C01D92A339B2076E
:1000E000E1F711E0A0E0B1E0E4EBF7E102C0059038
:1000F0000D92A638B107D9F710E0C2E6D0E004C0EF
:100100002197FE010E94BB09C136D107C9F70E94A1
:100110009B060C94CD0B0C940000CF92DF92EF92D3
:10012000FF920F931F93CF93DF936C017A018B01A2
:10013000C0E0D0E0CE15DF0589F0D8016D918D01CA
:10014000D601ED91FC910190F081E02DC601099559
:10015000892B11F47E0102C02196ECCFC701DF91FB
:10016000CF911F910F91FF90EF90DF90CF90089566
:10017000FC01538D448D252F30E0842F90E0821BAD
:10018000930B541710F0CF96089501970895FC0132
:10019000918D828D981761F0828DDF01A80FB11DBE
:1001A0005D968C91928D9F5F9F73928F90E00895E2
:1001B0008FEF9FEF0895FC01918D828D981731F09C
:1001C000828DE80FF11D858D90E008958FEF9FEFF0
:1001D0000895FC01918D228D892F90E0805C9F4FC6
:1001E000821B91098F739927089583ED91E00E94F6
:1001F000E90021E0892B09F420E0822F0895FC0119
:10020000848DDF01A80FB11DA35ABF4F2C91848D9F
:1002100090E001968F739927848FA689B7892C93D4
:10022000A089B1898C9180648C93938D848D98136F
:1002300006C00288F389E02D80818F7D8083089538
:10024000EF92FF920F931F93CF93DF93EC0181E026
:10025000888F9B8D8C8D981305C0E889F9898081E2
:1002600085FD24C0F62E0B8D10E00F5F1F4F0F731E
:100270001127E02E8C8DE8120CC00FB607FCFACFC8
:10028000E889F989808185FFF5CFCE010E94FF00C2
:10029000F1CF8B8DFE01E80FF11DE35AFF4FF08285
:1002A0000B8FEA89FB898081806207C0EE89FF8914
:1002B0006083E889F98980818064808381E090E0AF
:1002C000DF91CF911F910F91FF90EF900895CF9301
:1002D000DF93EC01888D8823C9F0EA89FB8980814E
:1002E00085FD05C0A889B9898C9186FD0FC00FB620
:1002F00007FCF5CF808185FFF2CFA889B9898C9161
:1003000085FFEDCFCE010E94FF00E7CFDF91CF91B7
:10031000089580E090E0892B29F00E94F50081117A
:100320000C9400000895833081F028F4813099F016
:100330008230A1F008958730A9F08830B9F0843078
:10034000D1F4809180008F7D03C0809180008F77F1
:1003500080938000089584B58F7702C084B58F7D27
:1003600084BD08958091B0008F7703C08091B00064
:100370008F7D8093B00008951F93CF93DF93282F34
:1003800030E0F901EE58FF4F8491F901E255FF4F3B
:10039000D491F901E656FF4FC491CC23C9F0162F32
:1003A00081110E949301EC2FF0E0EE0FFF1FEA573E
:1003B000FF4FA591B4918FB7F894111105C09C918E
:1003C000ED2FE095E92302C0EC91ED2BEC938FBF6C
:1003D000DF91CF911F910895CF93DF9390E0FC01BF
:1003E000E255FF4F2491FC01E656FF4F849188238C
:1003F00061F190E0880F991FFC01E859FF4FC5910A
:10040000D491FC01EA57FF4FA591B491611109C045
:100410009FB7F8948881209582238883EC912E23BE
:100420000BC0623061F49FB7F8943881822F8095B9
:1004300083238883EC912E2B2C939FBF06C08FB70C
:10044000F894E8812E2B28838FBFDF91CF910895F8
:100450003FB7F8948091CB019091CC01A091CD0150
:10046000B091CE0126B5A89B05C02F3F19F001968B
:10047000A11DB11D3FBFBA2FA92F982F8827820F2A
:10048000911DA11DB11DBC01CD0142E0660F771F7A
:10049000881F991F4A95D1F708952FB7F894609156
:1004A000C7017091C8018091C9019091CA012FBF05
:1004B00008956F927F928F929F92AF92BF92CF9248
:1004C000DF92EF92FF920F931F93CF93DF93EC0194
:1004D00086E0869F5001879FB00C1124AC0EBD1E94
:1004E000FE01EA15FB05B8F482819381892B09F49A
:1004F00055C03696F6CFE0917002F09171020284F9
:10050000F385E02D80E792E0099597FD0FC0FE018D
:10051000EA15FB0558F10E944D0260937802709332
:10052000790280937A0290937B02E5CF0E944D027C
:10053000009178021091790220917A0230917B0229
:10054000DC01CB01801B910BA20BB30B0091740259
:1005500010917502209176023091770280179107F1
:10056000A207B30740F28FEF9FEF5DC060817181FA
:1005700044815581DB01A40FB51F2C91022E000C84
:10058000330B82179307C1F44F5F5F4F558344834A
:10059000228133814217530709F043C0EC1BFD0B46
:1005A000F595E7952BEA3AEAE29FC001E39F900DAB
:1005B000F29F900D112437C04115510591F1E4804F
:1005C000F58097012150310935832483DB01A20F87
:1005D000B31FAC910A2E000CBB0B8A179B07F9F4D2
:1005E00021153105C9F06B018A01021B130B060F9F
:1005F000171F612C712CD6018D906D01D8019D9033
:100600008D01891006C0BFEF6B1A7B0A6216730654
:1006100090F36216730699F6F582E48202C0232BEA
:1006200071F6369675CFDF91CF911F910F91FF90A4
:10063000EF90DF90CF90BF90AF909F908F907F9082
:100640006F9008952091D1013091D2012817390778
:1006500071F49091CF018091D001981741F0E09111
:10066000CF01F0E0EA57FE4F808190E008958FEFD0
:100670009FEF089508951F93CF93DF93DC015C965D
:100680002D913C915D972115310539F481E090E081
:1006900013969C938E9312973DC05196ED91FC91C9
:1006A000529750969C915097892F80951FB75E96D0
:1006B0004C915E9741FB772770F941FD6095F89466
:1006C0004081772311F0492B01C048234083E90181
:1006D0002197F1F748E0508160FF02C0592B01C01B
:1006E00058235083E9012197F1F76695415099F716
:1006F000772321F090818923808303C08081982B08
:1007000090831FBF5C968D919C915D970197F1F747
:1007100021E030E0C901DF91CF911F910895209130
:10072000D1013091D2012817390771F48091D0019D
:100730002091CF0190E0805C9F4F821B910960E483
:1007400070E00E949309089580E090E00895209160
:10075000D1013091D20128173907B9F49091CF0116
:100760008091D001981789F0E091CF01F0E0EA572D
:10077000FE4F80812091CF0130E02F5F3F4F2F73DC
:1007800033272093CF0190E008958FEF9FEF0895D6
:10079000E091D101F091D201E817F90769F4A3893A
:1007A000B4899C918589809589238C931092D2017C
:1007B0001092D10181E0089580E00895089580E0CD
:1007C00090E00895FC01808191810C94560A0E946A
:1007D000B80B0F931F93CF93DF93EC01888199811E
:1007E000009729F02A813B812617370788F48B016F
:1007F0006F5F7F4F0E94EE0A009761F099838883B4
:100800001B830A832C813D81232B11F4FC01108270
:1008100081E001C080E0DF91CF911F910F91089599
:10082000EF92FF920F931F93CF93DF93FC012481EC
:1008300035816115710511F480E019C0411551052C
:10084000A9F07B01EC018A01020F131FB8010E947D
:10085000E903882389F3288139818C819D81B7013F
:10086000820F931F0E94C60B1D830C8381E0DF91D2
:10087000CF911F910F91FF90EF900895EF92FF920B
:100880000F931F93CF93DF93EC017B018A01BA0191
:100890000E94E9032881398181110DC0211531059C
:1008A00019F0C9010E94560A198218821D821C8201
:1008B0001B821A8206C01D830C83B701C9010E94E6
:1008C000C60BCE01DF91CF911F910F91FF90EF905A
:1008D0000895FC0111821082138212821582148203
:1008E0006115710551F0FB0101900020E9F7319786
:1008F000AF01461B570B0C943E040895CF92DF9234
:10090000EF92FF920F931F93CF93DF9300D0CDB759
:10091000DEB78C017B016A016DE671E00E9469041B
:10092000F701448155816081718180E792E00E94E6
:100930008D000E944D020D2C000CEE08FF08C60E23
:10094000D71EE81EF91E0E944D026C157D058E050E
:100950009F05A8F480E792E00E948F03892B99F30A
:1009600080E792E00E94A70389831A8241E050E069
:10097000BE016F5F7F4FC8010E941004EBCFF801EA
:10098000448155816081718183ED91E00E948D00E9
:10099000C8010F900F90DF91CF911F910F91FF90A1
:1009A000EF90DF90CF9008951F920F920FB60F92A5
:1009B00011242F933F934F935F936F937F938F9364
:1009C0009F93AF93BF93EF93FF9383ED91E00E94CA
:1009D000FF00FF91EF91BF91AF919F918F917F9118
:1009E0006F915F914F913F912F910F900FBE0F909C
:1009F0001F9018951F920F920FB60F9211242F93EC
:100A00008F939F93EF93FF93E091E301F091E401C3
:100A10008081E091E901F091EA0182FD12C09081AC
:100A20008091EC018F5F8F732091ED01821751F05F
:100A3000E091EC01F0E0ED52FE4F958F8093EC01D8
:100A400001C08081FF91EF919F918F912F910F9025
:100A50000FBE0F901F9018951F920F920FB60F9216
:100A600011242F933F938F939F93AF93BF938091C4
:100A7000C7019091C801A091C901B091CA013091FC
:100A8000C60123E0230F2D3720F40196A11DB11DCF
:100A900005C026E8230F0296A11DB11D2093C601B3
:100AA0008093C7019093C801A093C901B093CA0174
:100AB0008091CB019091CC01A091CD01B091CE015C
:100AC0000196A11DB11D8093CB019093CC01A09301
:100AD000CD01B093CE01BF91AF919F918F913F9186
:100AE0002F910F900FBE0F901F9018951F920F928D
:100AF0000FB60F9211242F933F934F935F936F93F1
:100B00007F938F939F93AF93BF93EF93FF93E09166
:100B1000D101F091D201309709F451C0968DA6858C
:100B2000B785858591FF04C09C91892329F447C02E
:100B30009C91892309F043C0A389B4899C9185893C
:100B4000809589238C93868997890197F1F7608D29
:100B5000718DA685B785558538E020E0CB010197DA
:100B6000F1F7822F90E095958795282F4C9145239A
:100B700009F02068315091F7868D81FD2095809194
:100B8000D00190E001968F7399273091CF013817EB
:100B900049F0A091D001B0E0AA57BE4F2C938093AA
:100BA000D00103C0868D8160868F828D938D0197E1
:100BB000F1F7A389B4899C918589892B8C93FF9146
:100BC000EF91BF91AF919F918F917F916F915F91C5
:100BD0004F913F912F910F900FBE0F901F9018953E
:100BE0001092D6011092D50188EE93E0A0E0B0E01B
:100BF0008093D7019093D801A093D901B093DA01E3
:100C00002AE031E03093D4012093D30125EC30E089
:100C10003093E0012093DF0124EC30E03093E201D7
:100C20002093E10120EC30E03093E4012093E301D4
:100C300021EC30E03093E6012093E50122EC30E036
:100C40003093E8012093E70126EC30E03093EA018D
:100C50002093E9011092EC011092ED011092EE0147
:100C60001092EF011092730210927202809374023C
:100C700090937502A0937602B09377028CE191E095
:100C800090937102809370021092870210928602F4
:100C9000109289021092880210928B0210928A029E
:100CA00010928D0210928C0260918E026E7F6D7F89
:100CB00060938E026695617081E0682783E00E94F0
:100CC000BC0161E083E00E94EC01E1EBF0E0E49123
:100CD000E0938002EDE9F0E0E491F0E0EE0FFF1F19
:100CE000EA57FF4F859194919093820280938102FD
:100CF00060E082E00E94EC0180918E0281FD04C0E0
:100D000061E082E00E94BC0182E080937C02E0EB23
:100D1000F0E0E491E0937D02ECE9F0E0E491F0E0B2
:100D2000EE0FFF1FE057FF4F8591949190937F0244
:100D300080937E020895CF93DF93CDB7DEB7669799
:100D40000FB6F894DEBF0FBECDBF789484B5826035
:100D500084BD84B5816084BD85B5826085BD85B55F
:100D6000816085BD80916E00816080936E001092DD
:100D70008100809181008260809381008091810058
:100D800081608093810080918000816080938000E9
:100D90008091B10084608093B1008091B000816047
:100DA0008093B00080917A00846080937A00809173
:100DB0007A00826080937A0080917A0081608093CB
:100DC0007A0080917A00806880937A001092C10046
:100DD000E091E301F091E40182E08083E091DF01A2
:100DE000F091E0011082E091E101F091E2018FECDD
:100DF00080831092EB01E091E701F091E80186E039
:100E00008083E091E501F091E6018081806180833B
:100E1000E091E501F091E601808188608083E091B6
:100E2000E501F091E601808180688083E091E50131
:100E3000F091E60180818F7D808310928B02109269
:100E40008A021092890210928802109287021092F0
:100E500086028DE991E090938D0280938C029091AF
:100E60007C02963108F057C02DEB30E030938702BA
:100E7000209386022BE931E0309389022093880287
:100E80002CE231E030938B0220938A02209168009B
:100E9000983050F031E09E3008F430E081E001C03D
:100EA000880F3A95EAF701C084E0822B80936800AE
:100EB000983038F09E3040F0963148F020E030E035
:100EC00008C02DE630E005C02BE630E002C02CE67D
:100ED00030E03093840220938302983030F481E034
:100EE00001C0880F9A95EAF70EC0292F30E09E3096
:100EF00018F42850310902C02E50310981E001C098
:100F0000880F2A95EAF78093850280918C02909150
:100F10008D020197F1F780918A0290918B02892BC3
:100F200021F18091D1019091D20122E08037920786
:100F3000E1F0009711F00E94C80380918E028E7F2D
:100F400080938E021092D0011092CF0180E792E040
:100F50009093D2018093D101E0918302F0918402B9
:100F6000908180918502892B808361E08BE00E94D3
:100F7000EC0160E08BE00E94BC0161E08CE00E942B
:100F8000EC0160E08CE00E94BC0161E08DE00E9419
:100F9000EC0160E08DE00E94BC016AE271E0CE01EC
:100FA00009960E94690440ED57E0BE01675F7F4FDC
:100FB0008E010F5F1F4FC8010E947E04C8010E946E
:100FC000E203CE0109960E94E20363E371E0CE01E1
:100FD00009960E94690448EE53E0BE01675F7F4FA7
:100FE000C8010E947E04C8010E94E203CE01099656
:100FF0000E94E20361E471E0CE0109960E94690457
:1010000048EE53E0BE01675F7F4FC8010E947E0437
:10101000C8010E94E203CE0109960E94E2036CE43B
:1010200071E0CE0109960E94690448EE53E0BE01CA
:10103000675F7F4FC8010E947E04C8010E94E203DF
:10104000CE0109960E94E2036AE571E0CE0109969D
:101050000E94690448EE53E0BE01675F7F4FC801FC
:101060000E947E04C8010E94E203CE0109960E94FC
:10107000E2032EE6222E21E0322E34E0832E912C44
:1010800080E792E00E948F03892B09F4D3C0F80116
:1010900026E011922A95E9F73A82298285E090E0CC
:1010A0009C838B8361E070E0C8010E9459027C013F
:1010B000892B09F0BFC00E9428025B016C0198EEE9
:1010C000492E93E0592E612C712C0E942802DC01DC
:1010D000CB018A199B09AC09BD09883E9340A10543
:1010E000B10558F091E0491A510861087108E8EE1D
:1010F000AE0EE3E0BE1EC11CD11C411451046104BC
:10110000710419F780E792E00E94A703C0973C01A1
:10111000F80126E011922A95E9F784E791E09A8395
:1011200089839C828B8261E070E0C8010E94590231
:1011300080E792E00E94A703C097EAE0E89F600181
:10114000E99FD00C112480E792E00E94A703C0978A
:10115000C80ED91E96013327F901EE58FF4F84912E
:10116000F901E255FF4F9491F901E656FF4F2491A2
:101170002223C1F0882331F02E8B9D8B0E94930196
:101180009D892E89E22FF0E0EE0FFF1FE057FF4F01
:10119000A591B491EC919E2321E080E009F420E038
:1011A000E22EF82EB701F1E06F278C2D0E94BC01D2
:1011B00069E771E0CE010F960E9469044AE0B80128
:1011C000C3010E942709F80101900020E9F7319737
:1011D000AF01401B510BB801CE010F960E941004C5
:1011E00042E050E06BE671E0CE010F960E941004E1
:1011F0001A8219821C821B821E821D826F85788949
:101200006115710529F04B895C89C8010E943E0473
:1012100048EE53E0B801CE0109960E947E04CE014B
:1012200009960E94E203C8010E94E203CE010F96D4
:101230000E94E2030E94890123CF8CE191E0909308
:1012400071028093700280E792E00C94C803BB2780
:101250004A3031F4992322F4BDE2909581959F4F55
:101260000C943309BB27FB015527AA27880F991F28
:10127000AA1FA41710F0A41B83955051B9F7A05DC5
:10128000AA3308F0A95DA193009779F7B111B19342
:101290001192CB010C944C09DC01FC01672F719178
:1012A0007723E1F7329704C07C916D93708362914C
:1012B000AE17BF07C8F308952F923F924F925F92E7
:1012C0006F927F928F929F92AF92BF92CF92DF9256
:1012D000EF92FF920F931F93CF93DF93CDB7DEB7BB
:1012E000CA1BDB0B0FB6F894DEBF0FBECDBF09944F
:1012F0002A88398848885F846E847D848C849B84A6
:10130000AA84B984C884DF80EE80FD800C811B81B3
:10131000AA81B981CE0FD11D0FB6F894DEBF0FBEE2
:10132000CDBFED01089597FB072E16F4009407D06A
:1013300077FD09D00E94A70907FC05D03EF49095DF
:1013400081959F4F0895709561957F4F0895AA1BD1
:10135000BB1B51E107C0AA1FBB1FA617B70710F0A0
:10136000A61BB70B881F991F5A95A9F780959095D2
:10137000BC01CD010895EE0FFF1F0590F491E02D03
:101380000994CF93DF938230910510F482E090E0CE
:10139000E0919102F091920220E030E0C0E0D0E0D4
:1013A000309711F14081518148175907C0F0481713
:1013B000590761F482819381209719F09B838A8376
:1013C0002BC0909392028093910226C02115310583
:1013D00019F04217530718F49A01BE01DF01EF011B
:1013E0000280F381E02DDCCF2115310509F1281BA6
:1013F000390B2430310590F412968D919C911397FE
:101400006115710521F0FB019383828304C09093E1
:10141000920280939102FD01329644C0FD01E20FD9
:10142000F31F81939193225031092D933C933AC03D
:1014300020918F0230919002232B41F420910201E0
:10144000309103013093900220938F02209100018C
:10145000309101012115310541F42DB73EB740917E
:10146000040150910501241B350BE0918F02F0918E
:101470009002E217F307A0F42E1B3F0B2817390741
:1014800078F0AC014E5F5F4F2417350748F04E0FE0
:101490005F1F5093900240938F028193919302C0FB
:1014A000E0E0F0E0CF01DF91CF9108950F931F931B
:1014B000CF93DF93009709F48CC0FC01329713821D
:1014C000128200919102109192020115110581F48E
:1014D00020813181820F931F20918F0230919002E1
:1014E0002817390779F5F0939002E0938F0271C0C5
:1014F000D80140E050E0AE17BF0750F412962D918E
:101500003C911397AD012115310509F1D901F3CFB4
:101510009D01DA013383228360817181860F971FD9
:101520008217930769F4EC0128813981260F371F50
:101530002E5F3F4F318320838A819B8193838283F7
:10154000452B29F4F0939202E093910242C0139646
:10155000FC93EE931297ED01499159919E01240F4E
:10156000351FE217F30771F480819181840F951F75
:10157000029611969C938E938281938113969C93ED
:101580008E931297E0E0F0E0D80112968D919C9135
:101590001397009719F0F8018C01F6CF8D919C916B
:1015A00098012E5F3F4F820F931F20918F02309141
:1015B00090022817390769F4309729F410929202A3
:1015C0001092910202C01382128210939002009333
:1015D0008F02DF91CF911F910F910895A0E0B0E0AD
:1015E000E4EFFAE00C946009EC01009721F4CB01E0
:1015F0000E94C109B8C0FC01E60FF71F9C012250F0
:101600003109E217F30708F4ACC0D9010D911C9120
:10161000119706171707B0F00530110508F49FC0A1
:10162000C80104978617970708F499C0025011095A
:10163000061B170B019311936D937C93CF010E94AE
:10164000560A8DC05B01A01AB10A4C01800E911E92
:10165000A0919102B091920240E050E0E12CF12C77
:10166000109709F44AC0A815B905D1F56D907C9082
:101670001197630182E0C80ED11CCA14DB0480F10B
:10168000A3014A195B096A0182E0C80ED11C1296B7
:10169000BC9012971396AC91B5E0CB16D10440F0F4
:1016A000B282A38351834083D9016D937C930AC096
:1016B0000E5F1F4FC301800F911FF901918380833B
:1016C000EB2DFA2FE114F10431F0D7011396FC93BE
:1016D000EE93129744C0F0939202E09391023FC0C0
:1016E0008D919C9111974817590708F4AC017D0121
:1016F00012960D90BC91A02DB3CF80918F02909146
:10170000900288159905E1F446175707C8F48091AF
:10171000000190910101009741F48DB79EB740916F
:10172000040150910501841B950BE817F907C8F4D3
:10173000F0939002E0938F02F901718360830FC0F0
:10174000CB010E94C1097C01009759F0A801BE019C
:101750000E94BD0BCE010E94560AC70104C0CE01F3
:1017600002C080E090E0CDB7DEB7EEE00C947C09DB
:1017700081E090E0F8940C94CD0BFB01DC0102C0F9
:1017800001900D9241505040D8F70895FB01DC01C3
:1017900001900D920020E1F7089510E0C2E6D0E03C
:1017A00004C0FE010E94BB092196C336D107C9F7C8
:0417B000F894FFCFDB
:1017B4000000930280000000000020018D00B800AA
:1017C4006701E900C700DB00000000003B038D0057
:1017D400DF033A038F03A703220341542B525354CC
:1017E4000D0A0041542B43574D4F44453D320D0AD9
:1017F4000041542B43494653520D0A0041542B4394
:1018040049504D55583D310D0A0041542B43495020
:101814005345525645523D312C38300D0A002B4960
:1018240050442C0070696E3D0041542B4349504391
:061834004C4F53453D003E
:107E0000112484B714BE81FFF0D085E080938100F7
:107E100082E08093C00088E18093C10086E0809377
:107E2000C20080E18093C4008EE0C9D0259A86E02C
:107E300020E33CEF91E0309385002093840096BBD3
:107E4000B09BFECF1D9AA8958150A9F7CC24DD24C4
:107E500088248394B5E0AB2EA1E19A2EF3E0BF2EE7
:107E6000A2D0813461F49FD0082FAFD0023811F036
:107E7000013811F484E001C083E08DD089C08234E0
:107E800011F484E103C0853419F485E0A6D080C0E4
:107E9000853579F488D0E82EFF2485D0082F10E0AE
:107EA000102F00270E291F29000F111F8ED06801E7
:107EB0006FC0863521F484E090D080E0DECF843638
:107EC00009F040C070D06FD0082F6DD080E0C81688
:107ED00080E7D80618F4F601B7BEE895C0E0D1E017
:107EE00062D089930C17E1F7F0E0CF16F0E7DF06D8
:107EF00018F0F601B7BEE89568D007B600FCFDCFD4
:107F0000A601A0E0B1E02C9130E011968C91119780
:107F100090E0982F8827822B932B1296FA010C0160
:107F200087BEE89511244E5F5F4FF1E0A038BF0790
:107F300051F7F601A7BEE89507B600FCFDCF97BE46
:107F4000E89526C08437B1F42ED02DD0F82E2BD052
:107F50003CD0F601EF2C8F010F5F1F4F84911BD097
:107F6000EA94F801C1F70894C11CD11CFA94CF0C13
:107F7000D11C0EC0853739F428D08EE10CD085E9AC
:107F80000AD08FE07ACF813511F488E018D01DD067
:107F900080E101D065CF982F8091C00085FFFCCF94
:107FA0009093C60008958091C00087FFFCCF809118
:107FB000C00084FD01C0A8958091C6000895E0E648
:107FC000F0E098E1908380830895EDDF803219F02E
:107FD00088E0F5DFFFCF84E1DECF1F93182FE3DFCA
:107FE0001150E9F7F2DF1F91089580E0E8DFEE27F6
:047FF000FF270994CA
:027FFE00040479
:0400000300007E007B
:00000001FF
